:100000000C94D4000C94FC000C94FC000C94FC00A8
:100010000C94FC000C94FC000C94FC000C94FC0070
:100020000C94FC000C94FC000C9400050C946F05DF
:100030000C94FC000C94FC000C94FC000C94FC0050
:100040000C94FC000C9444040C94FC000C94FC00F4
:100050000C94FC000C94FC000C94FC000C94A10784
:100060000C94FC000C94FC000C94FC000C94FC0020
:100070000C94FC000C94FC000C94FC000C94FC0010
:100080000C94FC000C94FC000C94FC000C94FC0000
:100090000C94FC000C94FC000C94FC000C94FC00F0
:1000A0000C94FC000C94FC000C94FC00000000007C
:1000B000240027002A002D00300000000000250049
:1000C00028002B002E003100000000002300260035
:1000D00029002C002F000404040404030405020278
:1000E00002020403020202020606060606060404D1
:1000F0000202020404040802011040804010204063
:10010000804080080204018040201002011080100D
:10011000204040200000000200090F0000030401FD
:10012000000C0000000000000000000000000000C3
:100130000000080B00020202000009040000010296
:10014000020000052400100105240101010424021D
:10015000060524060001070581031000400904017B
:1001600000020A00000007050202400000070583A4
:10017000024000000403090412010002EF020140E2
:100180004F1B0392000101020301537061726B4621
:10019000756E00537061726B46756E2050726F20E1
:1001A0004D6963726F001E0811241FBECFEFDAE0A5
:1001B000DEBFCDBF11E0A0E0B1E0E8E7F4E102C0AE
:1001C00005900D92A832B107D9F721E0A8E2B1E07D
:1001D00001C01D92A13DB207E1F710E0C4EDD0E0EF
:1001E00004C02197FE010E94340AC33DD107C9F71C
:1001F0000E9488080C943A0A0C940000E091CE0109
:10020000EC3078F54091CF0128E830E0241B31092B
:1002100047FD3395220F331F220F331F8217930799
:1002200084F04091D00128E532E0241B310947FDDC
:100230003395220F331F220F331F821793070CF4BD
:100240009C014FB7F8948E2F90E022503109FC01A9
:10025000EE0FFF1FE80FF91FE856FE4F3283218390
:100260004FBF0895FC0180914701882311F13FB7EA
:10027000F89482E08093E9002091F200822F90E0D0
:100280001816190614F481E090E0882339F02898B4
:1002900044E6409346014091F1004083222339F027
:1002A0002091F200211103C02BE62093E8003FBF0C
:1002B00008958FEF9FEF08952FB7F89483E0809310
:1002C000E9009091E800892F807295FF04C0909119
:1002D000F20080E4891B2FBF089580913D018111B8
:1002E0000DC082E08093390184E080933A0110923E
:1002F0003C0110923B0181E080933D0189E391E054
:100300000895CF93DF931F92CDB7DEB76983DC01E9
:10031000ED91FC910280F381E02D41E050E0BE01BF
:100320006F5F7F4F09950F90DF91CF91089583E024
:100330008093E9008091F200882319F08AE380938A
:10034000E80008950E945C0190E00895CF93DF9348
:100350001F92CDB7DEB7FC018485958597FD08C057
:100360002FEF3FEF358724870F90DF91CF910895CE
:10037000CE0101960E943201019719F4898190E023
:10038000F3CF8FEF9FEFF0CF0F931F93CF93DF93B8
:100390001F92CDB7DEB78C01FC018485958597FF50
:1003A0000BC0CE0101960E943201019771F4898140
:1003B00090E0F80195878487F801848595850F90F2
:1003C000DF91CF911F910F9108958FEF9FEFF1CFA4
:1003D000FC018485958597FD0BC09FB7F89482E05A
:1003E0008093E9008091F2009FBF90E0019608950C
:1003F0009FB7F89482E08093E9008091F2009FBF5C
:1004000090E00895409133015091340120913101E1
:100410003091320142175307B4F49091E80095707F
:10042000E1F39091E80092FD19C08093F100809172
:1004300033019091340101968F739927892B19F418
:100440008EEF8093E8008091330190913401019602
:10045000909334018093330181E0089580E0089502
:10046000DF92EF92FF920F931F93CF93DF93D82EDB
:100470008A01EB017B01E40EF51ECE15DF0559F074
:10048000D7FE12C0FE0184910E94020221968111C2
:10049000F4CF0FEF1FEFC801DF91CF911F910F91A4
:1004A000FF90EF90DF9008958881EECF0F931F9318
:1004B000CF93DF931F92CDB7DEB782E0898342E40A
:1004C00050E062E371E080E80E9430020E946D011A
:1004D000DC0112960D911C910115110589F0D801CE
:1004E000ED91FC910280F381E02DBE016F5F7F4FA3
:1004F000C801099597FD04C0F80100851185ECCF6E
:1005000089810F90DF91CF911F910F9108956150D4
:1005100030F02091F100FC0120830196F8CF28985B
:1005200084E680934601089581508F3008F047C0DB
:10053000E82FF0E0E256FD4F0C94340ABB02BF02F4
:10054000AD02B302B702DF02DF02DF02C202C8025D
:10055000CC02D002D602DF02DA02809180008F77CF
:10056000809380000895809180008F7DF9CF8091E5
:100570008000877FF5CF84B58F7784BD089584B5DB
:100580008F7DFBCF809190008F77809390000895AE
:10059000809190008F7DF9CF80919000877FF5CF7B
:1005A0008091C0008F778093C00008958091C00033
:1005B0008F7DF9CF8091C200877F8093C20008951C
:1005C000CF93DF93282F30E0F901EC5EFE4F84914A
:1005D000F901EB50FF4FD491F901EA52FF4FC4915A
:1005E000CC23A1F081110E949402EC2FF0E0EE0FD9
:1005F000FF1FE853FF4FA591B491EC91ED2381E0EB
:1006000090E009F480E0DF91CF91089580E090E0E0
:10061000FACF1F93CF93DF93282F30E0F901EC5EE0
:10062000FE4F8491F901EB50FF4FD491F901EA524A
:10063000FF4FC491CC23A9F0162F81110E94940280
:10064000EC2FF0E0EE0FFF1FE654FF4FA591B491A1
:100650008FB7F894EC91111108C0D095DE23DC938C
:100660008FBFDF91CF911F910895DE2BF8CFCF93ED
:10067000DF9390E0FC01EB50FF4F24918A529F4F93
:10068000FC0184918823D1F090E0880F991FFC0130
:10069000E455FF4FA591B491FC01E654FF4FC5917D
:1006A000D491623071F49FB7F8943C91822F809579
:1006B00083238C93E8812E2B28839FBFDF91CF91DA
:1006C00008958FB7F894EC912E2B2C938FBFF6CF13
:1006D0003FB7F89480912D0190912E01A0912F01A8
:1006E000B091300126B5A89B05C02F3F19F00196A7
:1006F000A11DB11D3FBFBA2FA92F982F8827BC017C
:10070000CD01620F711D811D911D43E0660F771FA2
:10071000881F991F4A95D1F708958F929F92AF92A3
:10072000BF92CF92DF92EF92FF924B015C010E9449
:1007300068036B017C010E9468036C197D098E09B6
:100740009F09683E734081059105A8F321E0821A54
:100750009108A108B10888EEC80E83E0D81EE11CFC
:10076000F11C81149104A104B10429F7FF90EF90CA
:10077000DF90CF90BF90AF909F908F9008958F9211
:100780009F92AF92BF92CF92DF92EF92FF920F9320
:100790001F93CF93DF936C017B018A0180910D0140
:1007A000882309F45CC080914701882309F457C06D
:1007B0008091380180FF05C08091E00082608093C5
:1007C000E000E801B12C8AEFA82E93E0892E2AE3FD
:1007D000922E209711F4BB20D9F10E945C01811167
:1007E0000AC0AA94AA20D9F161E070E080E090E00C
:1007F0000E948D03EECF8C171D0611F00CF08C2F8C
:100800009FB7F8948092E9002091E80025FD02C08E
:100810009FBFDFCF282F30E0C21BD30BF7018150E1
:1008200020F041914093F100FACFE20EF31EBB207D
:1008300021F09092E800B12CEBCF8091E80085FD8B
:10084000E7CF9092E800BB24B394209709F3F3CF4D
:100850005D9884E680933701101611063CF081E024
:1008600090E0F6019383828310E000E0C801DF91FD
:10087000CF911F910F91FF90EF90DF90CF90BF909D
:10088000AF909F908F9008951F920F920FB60F9286
:1008900011242F933F934F935F936F937F938F9385
:1008A0009F93AF93BF93CF93DF93EF93FF93809189
:1008B0004501C091BC01D0E087FF24C010928500A3
:1008C00010928400809145018F5F80934501809153
:1008D0004501082E000C990B8C179D0724F480917C
:1008E00045018C30C4F1809184009091850004967C
:1008F00080329E4408F47AC08091840090918500F3
:10090000049676C080914501082E000C990B8C1737
:100910009D07C4F6E09145018E2FEE0F990BFC0167
:10092000EE0FFF1FE80FF91FE856FE4F808186FF8C
:10093000C9CFE09145018E2FEE0F990BFC01EE0F10
:10094000FF1FE80FF91FE856FE4F808160E08F73AC
:100950000E940903B7CF2091840030918500E09177
:1009600045018E2FEE0F990BFC01EE0FFF1FE80FD4
:10097000F91FE856FE4F81819281820F931F909359
:10098000890080938800E09145018E2FEE0F990B2E
:10099000FC01EE0FFF1FE80FF91FE856FE4F8081A4
:1009A00086FF11C0E09145018E2FEE0F990BFC01DF
:1009B000EE0FFF1FE80FF91FE856FE4F808161E040
:1009C0008F730E940903FF91EF91DF91CF91BF9147
:1009D000AF919F918F917F916F915F914F913F91D7
:1009E0002F910F900FBE0F901F90189580E29EE4FC
:1009F00090938900809388008FEF80934501E3CF27
:100A00001F920F920FB60F9211248F939F93809194
:100A1000E1009091E100937F9093E10083FF0FC08C
:100A20001092E90091E09093EB001092EC0092E3B9
:100A30009093ED001092470198E09093F00082FFB0
:100A400022C093E09093E9009091F200992319F06D
:100A50009AE39093E80090913701992341F09091A7
:100A60003701915090933701911101C05D9A909197
:100A70004601992341F0909146019150909346018F
:100A8000911101C0289A84FF18C08091E2008E7EE7
:100A900081608093E2008091E1008F7E8093E1008D
:100AA000809138018E7E8061809338019F918F9173
:100AB0000F900FBE0F901F90189580FFF7CF809179
:100AC000E2008E7E80618093E2008091E1008E7E64
:100AD0008093E100809138018E7E8160E5CF1F9286
:100AE0000F920FB60F921124CF92DF92EF92FF92E6
:100AF0000F931F932F933F934F935F936F937F9326
:100B00008F939F93AF93BF93EF93FF93CF93DF9315
:100B1000CDB7DEB76C97DEBFCDBF1092E9008091F4
:100B2000E80083FF25C068E0CE0145960E94870259
:100B300082EF8093E8008D8987FF39C09091E800AB
:100B400090FFFCCF982F907609F034C19E894F8991
:100B5000588D2F89F88C911131C0803861F58091C2
:100B600036018093F1001092F1008EEF8093E8003F
:100B70006C960FB6F894DEBF0FBECDBFDF91CF915C
:100B8000FF91EF91BF91AF919F918F917F916F9165
:100B90005F914F913F912F911F910F91FF90EF9097
:100BA000DF90CF900F900FBE0F901F9018959EEF83
:100BB0009093E800C7CF1092F100D5CF913059F44F
:100BC0008111D3CF4130510581F6809136018D7F5F
:100BD00080933601CACF933049F48111C6CF41309A
:100BE000510519F6809136018260F2CF953041F4BB
:100BF0008091E80080FFFCCF20682093E300B5CF10
:100C0000963009F0A9C00B8D1C8D22E01092E900EE
:100C10001092340110923301F2122EC01092320160
:100C2000109231010E9456021F8299E09983FA8244
:100C300091E09E8390EA98879AEF998720913301FB
:100C400030913401275F3F4F3C832B838D8310927B
:100C5000E900109234011092330110933201009395
:100C6000310149E050E0BE016F5F7F4F80E00E949C
:100C700030020E94560279CF109332010093310165
:100C80000E946D01DC0112960D911C910115110558
:100C900009F451C1D801ED91FC910480F581E02D5A
:100CA000BE016B5E7F4FC8010995009709F03EC1F8
:100CB000F80100851185EACFF3E0FF120EC08F899D
:100CC000882309F440C0823061F440E862E183E99E
:100CD00091E00E94EB07811148CF81E28093EB0005
:100CE00047CF813029F440E868E08AE891E0F1CF0D
:100CF000833099F70E946D01DC011296ED90FC9013
:100D00008E010F5F1F4F6801E114F10479F0D701E4
:100D1000ED91FC910680F781E02DB801C70109959E
:100D2000080F111DF701E084F184EECFD8011C9269
:100D3000F60101900020E9F73197BF016C197D0998
:100D400040E0C601C6CF64E771E0FB01449150E08A
:100D500080E80E94300209CF973009F4BECF983066
:100D600021F481E08093F10000CF993009F0FDCEAD
:100D7000837009F0B2CFEFE0F1E081E031E096E37B
:100D80002191222371F08093E9003093EB00DF0181
:100D900011972C912093EC009093ED008F5F87309A
:100DA00079F78EE78093EA001092EA008F898093AA
:100DB0004701DBCE8B8D9C8D1092E900109234019F
:100DC000109233019093320180933101898D81110A
:100DD00092C08E899D89913A49F4813209F07DCF84
:100DE00047E050E066E071E080E0B3CF913209F077
:100DF00074CF833269F48F89988DB0E0A0E080933E
:100E0000020190930301A0930401B0930501ADCEBC
:100E1000803269F48091E80082FFFCCF67E086E0D1
:100E200091E00E9487028BEF8093E8009ECE823291
:100E300009F09BCE8F8980930D01EEEFFFE785913E
:100E400094918B3F9C4D51F1E0E0F8E080910601D8
:100E500090910701A0910801B0910901803B944055
:100E6000A105B105F1F480910D0180FD1AC0EE3F9E
:100E70008AE0F80789F587E797E791838083809177
:100E800060008093350188E19BE00FB6F894A89547
:100E9000809360000FBE9093600067CEEEEFFAE0A3
:100EA000D5CF808191818737974709F05ECEA8958D
:100EB000809160008861809360008091350180930B
:100EC0006000EE3F2AE0F20789F08091FE0A9091DF
:100ED000FF0A9183808349CE80819181873798076B
:100EE00051F29093FF0A8093FE0AC5CF1092FF0A39
:100EF0001092FE0A3ACE0E946D01DC0112960D910D
:100F00001C910115110509F4E8CED801ED91FC9171
:100F10000190F081E02DBE016B5E7F4FC801099505
:100F2000811123CEF80100851185EBCF1816190623
:100F30000CF41BCED2CEF1E0FF12BECE68E771E01A
:100F400004CF1F920F920FB60F9211242F933F934D
:100F50008F939F93AF93BF938091290190912A0122
:100F6000A0912B01B0912C013091280126E0230F94
:100F70002D3758F50296A11DB11D209328018093AD
:100F8000290190932A01A0932B01B0932C01809109
:100F90002D0190912E01A0912F01B0913001019669
:100FA000A11DB11D80932D0190932E01A0932F01BF
:100FB000B0933001BF91AF919F918F913F912F914D
:100FC0000F900FBE0F901F90189529E8230F0396DE
:100FD000A11DB11DD2CFEF92FF920F931F93CF931C
:100FE000DF93F82E192FE62E042F81E0860F880F4D
:100FF0000E94020283E00E940202CF2DD12FEC0E4C
:10100000FD2EF11CCE15DF05B9F007FF13C0FE0160
:1010100084910E940202182F80E00E940202812324
:1010200021968111EFCFDF91CF911F910F91FF900A
:10103000EF9008958881EDCF81E0F5CF10924B01BC
:1010400010924A0188EE93E0A0E0B0E080934C015A
:1010500090934D01A0934E01B0934F0189E191E02F
:1010600090934901809348018FEF9FEF9093550132
:101070008093540188EE93E09093C3018093C20162
:1010800080E49FE1A0E0B0E08093C6019093C701A7
:10109000A093C801B093C90184EF91E0A0E0B0E053
:1010A0008093CA019093CB01A093CC01B093CD0162
:1010B0008091BC018C3040F591E0980F9093BC0179
:1010C0008093CE0190E0FC01EE0FFF1FE80FF91FA7
:1010D000E856FE4F8CED95E0928381838AE0809301
:1010E000BD0188EE93E09093BF018093BE0180ED37
:1010F00097E09093C1018093C00184EF91E09093B9
:10110000C5018093C40108958FEF8093CE01E6CF8F
:10111000789484B5826084BD84B5816084BD85B5D2
:10112000826085BD85B5816085BD80916E008160DE
:1011300080936E0010928100809181008260809384
:101140008100809181008160809381008091800086
:1011500081608093800080919100826080939100F3
:1011600080919100816080939100809190008160D6
:10117000809390008091C10084608093C100809131
:10118000C10082608093C1008091C1008160809322
:10119000C1008091C30081608093C3008091C00032
:1011A00082608093C0008091C20081608093C20001
:1011B00080917A00846080937A0080917A008260C6
:1011C00080937A0080917A008E7F80937A0080915C
:1011D0007A00806880937A0010924701109236015D
:1011E000109238018091D70081608093D70080EA07
:1011F0008093D80089B58F7E89BD89B5826089BD0D
:1012000009B400FEFDCF61E070E080E090E00E9454
:101210008D038091D8008F7C80618093D80080916D
:10122000E000807F8093E0008091E1008E7E8093DB
:10123000E1008DE08093E200559A209A62E082E01E
:101240000E94370362E084E00E94370362E083E09B
:101250000E943703C091BD018091CE018C3008F00F
:1012600051C061E08C2F0E943703E091CE018E2F98
:1012700090E0DC01AA0FBB1FA80FB91FA856BE4FF4
:10128000CF738C91807C8C2B8C931092CF01109219
:10129000D0012CE08E2F622F0E94280A829FB0017D
:1012A000112430E020E0AB01420F531FDA01AA0FF6
:1012B000BB1FA40FB51FA856BE4F9C9196FD16C02C
:1012C0002F5F3F4F2C30310571F781110FC0109205
:1012D000800082E08093810010928500109284004B
:1012E000B19A80916F00826080936F008E2F90E0A2
:1012F000FC01EE0FFF1FE80FF91FE856FE4F80813B
:10130000806480838091C4019091C5010E94FE0099
:1013100064EF71E080E090E00E948D03C8EED3E0BE
:101320008091BE019091BF01C817D90744F0809108
:10133000C0019091C101C817D9070CF4CE01909358
:10134000C3018093C2010E94FE006AE070E080E069
:1013500090E00E948D032196CB3A25E0D20701F759
:1013600064E670E080E090E00E948D038091CA0105
:101370009091CB010E94FE00C0E0D0E00AEA15E0A7
:1013800084E00E94E0026C0183E00E94E0027C01A4
:1013900082E00E94E002892BA9F08091CA0190911D
:1013A000CB010E94FE00109301010093000164E64E
:1013B00070E080E090E00E948D03209709F30E9486
:1013C0000000DECFC114D10419F0E114F10429F7B3
:1013D000CD2879F480910001909101014E96813DD4
:1013E00027E0920714F080ED97E09093010180933D
:1013F0000001EF2879F480910001909101014E974E
:10140000883E23E0920714F488EE93E09093010164
:101410008093000120910001309101018091BE0173
:101420009091BF012817390744F08091C001909135
:10143000C101281739070CF4C9019093C3018093A7
:10144000C2010E94FE0064EF71E080E090E0B3CF43
:10145000991B79E004C0991F961708F0961B881F06
:101460007A95C9F780950895EE0FFF1F0590F491C6
:08147000E02D0994F894FFCF70
:10147800AA05FFFFFFFF00E100000000000000C117
:101488008081000000000000008101BF03A20197D5
:0814980001E801A601C40100F6
:00000001FF
